:020000040800F2
:100000005808002065010008692C0008352A0008FE
:1000100000000000000000000000000000000000E0
:10002000000000000000000000000000FB2C0008A1
:100030000000000000000000F92C0008FD2C000862
:100040007701000800000000770100087701000830
:1000500077010008770100087701000877010008A0
:100060000000000077010008770100087701000810
:100070007701000877010008770100080000000000
:100080007701000800000000000000008D2D00082E
:1000900000000000770100087701000877010008E0
:1000A0000000000077010008000000005936000839
:1000B00000F002F800F046F80CA030C80838241808
:1000C0002D18A246671EAB4654465D46AC4201D190
:1000D00000F038F87E460F3E0FCCB646012633427C
:1000E00000D0FB1AA246AB4633431847003A000043
:1000F000203A0000103A02D378C878C1FAD85207E3
:1001000001D330C830C101D504680C6070470000CD
:100110000023002400250026103A01D378C1FBD823
:10012000520700D330C100D50B60704710B5642969
:1001300002D100F0FFF810BD002010BD1FB51FBD9B
:1001400010B510BD00F0E5FE1146FFF7F7FF03F014
:10015000C5FA00F0FDFE03B4FFF7F2FF03BC00F0A8
:1001600003FF00000748804707480047FEE7FEE717
:10017000FEE7FEE7FEE7FEE704480549054A064BB1
:10018000704700008B2D0008B100000858020020C5
:10019000580800205804002058040020FEB50546E9
:1001A00010460C46184373D0AE468C460020AD1A5C
:1001B00001469C4167D36646002701243D46B61A96
:1001C0009D4102D313463A462124654676462F04C4
:1001D000360C3E432D0CB61A9D4104D3150C1B045E
:1001E0002B4312041034654676462F06360A3E43EA
:1001F0002D0AB61A9D4104D3150E1B022B43120281
:100200000834654676462F0736093E432D09B61A4F
:100210009D4104D3150F1B012B431201241D65467C
:100220007646AF07B6083E43AD08B61A9D4104D3E3
:10023000950F9B002B439200A41C65467646EF0762
:1002400076083E436D08B61A9D411AD392185B4159
:10025000641C16E00018764665464941B71A9D4170
:100260000191009009D36046B11A98418E468446A8
:10027000009801990025401C6941DD0752082A4376
:100280005B08641EE6D57246634603B0F0BDFFE727
:1002900000200146C046C0462A462346F5E7000036
:1002A0000FB41CB5074B06AA7B446946009005981D
:1002B00000F003FE0020694600F012FE1CBC08BCE2
:1002C00004B01847350C0000F8B50E46044600206F
:1002D00020622046E1688847002829D0252802D0DE
:1002E0006268A16820E0E168204600278847050091
:1002F0001ED028464138192802D80127FF02203590
:100300003246204627602946FFF710FF002808D014
:10031000012804D0F61DF608F6000836D9E7361D88
:10032000D7E762682846A1689047206A401CCFE75B
:10033000206AF8BDF7B5002575291068009914A644
:1003400011D0C046C046002802DA404211A608E09B
:10035000009909688A0701D50FA602E0490704D56C
:100360000EA6012501E0C046C046009F00242437A8
:1003700004E000F0BAFD30313955641C0028F8D192
:100380002B4632462146009800F03AFDFEBD0000A3
:10039000000000002D0000002B00000020000000E5
:1003A00001E004C0091F0429FBD28B0701D502809C
:1003B000801CC90700D00270704700290BD0C3070A
:1003C00002D00270401C491E022904D3830702D5C3
:1003D0000280801C891EE3E70022EEE70022DFE7AF
:1003E000002203098B422CD3030A8B4211D3002332
:1003F0009C464EE003460B433CD4002243088B420C
:1004000031D303098B421CD3030A8B4201D3944698
:100410003FE0C3098B4201D3CB01C01A524183098B
:100420008B4201D38B01C01A524143098B4201D345
:100430004B01C01A524103098B4201D30B01C01A70
:100440005241C3088B4201D3CB00C01A52418308EA
:100450008B4201D38B00C01A524143088B4201D317
:100460004B00C01A5241411A00D201465241104677
:1004700070475DE0CA0F00D04942031000D34042EC
:10048000534000229C4603098B422DD3030A8B4222
:1004900012D3FC22890112BA030A8B420CD38901C0
:1004A00092118B4208D3890192118B4204D38901A6
:1004B0003AD0921100E08909C3098B4201D3CB01E4
:1004C000C01A524183098B4201D38B01C01A524199
:1004D00043098B4201D34B01C01A524103098B429D
:1004E00001D30B01C01A5241C3088B4201D3CB0088
:1004F000C01A524183088B4201D38B00C01A52416B
:10050000D9D243088B4201D34B00C01A5241411A41
:1005100000D20146634652415B10104601D340426F
:10052000002B00D54942704763465B1000D3404220
:1005300001B50020C046C04602BD704770477047F5
:100540000246C80FC00781434B0030B54B405B00EB
:100550009B0D20D01923DB06C91801231B059942E6
:1005600020DB0324A40704251346AB400BD3002B48
:1005700004D1EB0613409B00E34204D4012464073A
:10058000002312195941FF231B0599420BD2C900C0
:100590000143500F09E0CB0204D501430803024395
:1005A00005D0054830BDFF21C905084330BD0846C8
:1005B00007210905884330BD0000C07FF0B50C4617
:1005C000871A9C410D46861A9D4103D2C01BA1414A
:1005D000D21963410D0D1F0DC94EEC1BAE435CD00B
:1005E0007F057F0D0026002F51D02D05AC46A94375
:1005F000DD020123ED0A1B051D4320231B1B24D410
:100600001746E740381871412F46E740CC199D4006
:100610002818314661410C0D27D161449A4013D509
:100620000023401C594152000ED1400840000122D5
:100630004B005205D34207D305204007C14201D5E4
:10064000B04900E0B0493046F0BD6B00002A00D050
:1006500001229A181F23203C1B1B01D5002302E016
:10066000E540281871410C0DD7D001242405091943
:10067000C407CD0740084908E40F28436144002C13
:10068000D5D00024401C61419A40D0D1CDE76A0505
:10069000520DD9D1C90FC907D5E79C4D4E0000288E
:1006A00001D0012400E0002434195F00002A01D0A9
:1006B000012600E00026BE19954FAC420CD8AE4290
:1006C0000AD8B44206D001256D05EC42BCD01046D4
:1006D0001946F0BD9942FCD000203946F0BDF0B576
:1006E0001FB40C460F46811A9F412546861A9D412C
:1006F00006D20125ED076F40401ABC4152187B41DC
:10070000210D1E0D8D1BAC467D4D8D437ED0750594
:100710006D0D7CD00D05AE46AC431B031B0B794D14
:1007200052429D41202366469B1B14D31746F74037
:10073000381800260090744160462F460741E4199E
:1007400000989D402818664116D4714671189A4049
:1007500025D5012320E093182A466A415200002B38
:1007600000D0521C1E23203E9B1B002B61DD354117
:10077000EE1728186641E8D5001876415B1C9A40B0
:1007800000D3401C4B05F3181524E34010D3002B75
:1007900052D071467118D30FC01802D3491C05B04E
:1007A000F0BD0123DB079A42F9D140084000F6E78B
:1007B00001225205B21801D1002853D00123CC0ADE
:1007C000DB029943891E002A08D1020C03D0020CD7
:1007D0000004103902E00246002020390023550BA6
:1007E00005D112020823550B01D152010D23550CDE
:1007F00001D112011B1DD50C01D192009B1C150DBE
:1008000001D152005B1C2025EE1A01E02CE022E011
:100810000546F54015439840CA1AE10769181305C3
:10082000C918002ABBDA032040070818C10FC907FE
:100830000FE071466118B2E7F107400808437110F4
:1008400071444A000CD001235B059A42A7D2C90F1C
:10085000C9070020A3E74905490D26D1002001E082
:100860000028F4D100219AE7284D6600002801D025
:10087000012100E0002171185F00002A01D001264B
:1008800000E00026BE19224FA94210D8AE420ED871
:10089000B14208D001256D05E94206D01946A802EB
:1008A000414010467BE79C4201D0214677E700207B
:1008B000394674E710B50C465C4005D50124E407C1
:1008C0006340FFF70CFF10BDFFF778FE10BD30B49A
:1008D0000C465C4004D50124E407634030BC6DE65F
:1008E00030BCFCE670B50124E40761400D465D4074
:1008F00002D4FFF763FE70BD6340FFF7F0FE70BDEA
:10090000FF0700000000F0FF0000F07F0000E0FFA4
:100910000000F87FF0B58B4C0F09254689B0BD4328
:100920007BD01D092646AE43FAD00E465E402740D6
:10093000F60F3E43254071D024012142FBD0FF2415
:10094000AD19A4042D1B039501252D05DB02DB0A3F
:10095000C9022B43C90A29431E010901040F130FC1
:10096000050121431701880B820391432D098C4611
:10097000A90B1E438A039543B30B9A0396433F0981
:10098000BA0B9403A74302962E467E430497B646BD
:100990004E19D7190C460196544305977E43371BD1
:1009A0007646BF1B3601B646BE0B36190096764614
:1009B000BC043719009C01D3641C00946400002F10
:1009C00001D001263443029E049F754366467E4350
:1009D0000496760034196E0034190094029C019E2E
:1009E0001C196643751BAE46069465464519059C61
:1009F00005956C43594375460891691A0191049E07
:100A000001465143A41B0491611A009C0791E10621
:100A100005D061090122114302E072E06EE0610934
:100A2000089D00272C0A2D066918049D7C412A0A7E
:100A30002D066918019D6241AC0DAD026D1854413F
:100A4000079A910D920255196141029A64465843E2
:100A50005443069B059A5A43121A131B9A0E9B0184
:100A60005B187A41010B0005C3185141220A200688
:100A700044195A419A4200D2491C01204002814245
:100A800003D315230226F64302E014230326F6437C
:100A90002020C51AA9401746AF40DA400A43204635
:100AA0000399D8400914731819055118039A38434B
:100AB000D2075140AC4009D00122944006D3002215
:100AC000401C5141002C01D1400840001E4A934275
:100AD00012D3012203989206904207DB05204007BB
:100AE00009181A480143C012414004E0032040079E
:100AF0000818C10FC907002009B0F0BD0020F10798
:100B0000FAE705180C464C4111486D42A04115D337
:100B100094181A465A410E48644290410ED301205F
:100B20004A004005824209D35A00824206D3594006
:100B3000C90F084AC90700201143DDE70020064914
:100B4000DAE700000000FF07FE070000FFFFFF7F5D
:100B50000000E0FF0000F07F0000F87F0121C905E0
:100B60000123411842001B06D3185B0E0AD0C110A6
:100B70000722D206891840075242D14201D55200BD
:100B800089187047090208D50146002A03D0C10F11
:100B9000C9070020704710467047420202D000206B
:100BA00002497047072109050143F4E70000F87F77
:100BB000F0B5FF252D04C609C209FF2704462E40C3
:100BC0000137CB093E4348402A402B400746002AC4
:100BD0006BD0002B69D0AA4267D0AB4265D0002809
:100BE00000DA32460125ED0529432C430902200293
:100BF000090AD21A4B0C7F24E31A434C000A7C44A6
:100C0000E35C7D242404121914145B00A2188842AA
:100C100001D3521C00E0400049420C465C432411C1
:100C20005C43DB016415E318040A5C43C502200D34
:100C30000C4644436419250A5D432303EC0C0D461E
:100C4000654300030019EB184C42A34201D35B1823
:100C5000401CD4052018002B07D05B00C91804D312
:100C6000401C002901D1400840003F2189048A42EC
:100C700009D3002A08DC1106090F04D00321490713
:100C80004018C00FC007F0BD0122410012068918AC
:100C90007F2252069142F6D205214907C84201D56A
:100CA0009010F0BDFF20C005F0BD002F00DA3246E5
:100CB0001648AA4207D2AB4205D21902090E17D034
:100CC000F80FC007F0BDFF2563002D06AB42F9D831
:100CD0004900A942F6D8AB4201D1A942F2D0A942BB
:100CE00001D1002101E061004908D0050843F0BDB1
:100CF0001102090EFBD0FF200243D005F0BD0A46C9
:100D00000146104654E70000AA2E00000000C07FF4
:100D100010B501469E240002CA15A307002A02D07E
:100D20001843002A04DBA21A002A0CDDD04010BDB3
:100D30001206120E01D140004008A21A03D4D0407E
:100D400040420028F3DDFF2248001206904201D9FC
:100D5000002010BDC817C043584010BD1F22030C0F
:100D600002D10F2200041CD0030E01D10002083A68
:100D7000030F01D10001121F830F01D18000921EC9
:100D8000002801DB4000521ED205511802125118F2
:100D90001922904004D3491C002801D14908490078
:100DA00008467047C10FC90700D040420122920790
:100DB0001143D3E701218907D0E7000010B5FF22D6
:100DC000C30D134009D05A4007D0914205DA5C4266
:100DD000A14202DDC905081810BDC40FE407002BAD
:100DE00006D0002A06D0002902DBFF20C0050443FC
:100DF000204610BD4102FCD0004810BD0000C07F5D
:100E0000FFB504460D4681B0243000902168880665
:100E100004D51022E0699143216000E00120A8423E
:100E200001DD471B00E000270498A1697A1910181A
:100E3000081AA0612078C00602D42046C046C046E9
:100E4000002608E003986268A168805D9047206AE8
:100E5000401C761C206204988642F3DB2078C00692
:100E60000AD52046C046C04606E06268A168302028
:100E70009047206A401C206238467F1E0028F4DC20
:100E800007E000986268A168405D9047206A401CB6
:100E9000206228466D1E0028F3DC2046C046C0466E
:100EA0002078000602D5022005B0F0BD0120FBE746
:100EB00001694A1C02610878704700B58FB0029141
:100EC000002105910549019379440391114604904D
:100ED0006846FFF7F9F90FB000BD0000E5FFFFFF1E
:100EE0000A681070521C0A60704701468008081A90
:100EF00002091018020A1018020C1018C00882000B
:100F000012185200891A01E0401C0A390A29FBD242
:100F10007047754600F024F8AE4605006946534612
:100F2000C008C000854618B020B5FFF725F960BCA1
:100F300000274908B6460026C0C5C0C5C0C5C0C503
:100F4000C0C5C0C5C0C5C0C5403D49008D4670473D
:100F500010B50446C046C0462046FFF7FCF810BD59
:100F600000487047F801002001491820ABBEFEE799
:100F70002600020070470000F8B5044600200090EB
:100F8000206881688907890F012905D10168C9078F
:100F900031D1C16809042ED48168184A1026114045
:100FA000012500291AD18168294381601548144917
:100FB0000068FFF715FA00E0401E00900028FBD102
:100FC00000F0F0FA074611E000F0ECFAC01B02282E
:100FD0000CD920680068C043C00707D0A06B30431D
:100FE000A063E06B2843E0630120F8BD206800683F
:100FF000C043C007E8D10020F8BD00001700008002
:1010000040420F006C000020F8B500250446203453
:101010000095227D012A39D00122227503689E683D
:10102000760767D4384F4E68BE424DD09E6A0F781F
:10103000BA4016439E620123C26A1B079A421FD020
:10104000012A1DD0022A1BD0032A19D0042A17D046
:10105000052A15D0062A13D0072A11D002688B68FA
:1010600056697607760FB3420AD05369DB08DB0076
:101070005361006842690B7A5B075B0F1A43426158
:101080000A68102A04D0112A02D038E00220F8BDE4
:101090001E488368102A07D00122920513438360FB
:1010A0000868102803D02AE00122D205F6E7194883
:1010B00017490068FFF794F90A21484300E0401EF1
:1010C00000900028FBD11AE0986A0E78B240904355
:1010D00098620968102901D0112910D10B48826843
:1010E000102904D0012189058A43826007E001218B
:1010F000C905F9E7816B2022114381630125002096
:1011000020752846F8BD00000110000000270140AE
:1011100040420F006C0000200068006C7047000027
:10112000F8B500260446002805D0A06B25462035DA
:10113000002802D007E00120F8BD0020E0632875F8
:10114000204600F0A9F8A06B1022C006002870DB32
:101150002068816849076CD4A16B1301994302236D
:101160001943A16381688907890F012905D10168A5
:10117000C9070FD1C16809040CD4C1681823994369
:10118000A3681943C1602068016963688900890800
:10119000194301612068C1683D4B1940C160207E40
:1011A000617E8003C9030843A17E4B031843A36AF1
:1011B000012B02D001231B0300E000231843E36846
:1011C00018432369022B09D0002318432B79E57EAD
:1011D0005B0018430123012D02D00AE00423F4E749
:1011E000002927D0A16B20252943A163E16B194376
:1011F000E163E1690D46FF3DC23D02D0256A294306
:1012000008432168CD680543CD600125E16A2D07BB
:10121000A94213D0012911D002290FD003290DD0E2
:1012200004290BD0052909D0062907D0072905D0A4
:1012300010E028E0012109040843DAE721684D693C
:10124000ED08ED004D6121684D69A78D7F077F0F87
:101250003D434D612168C9680E4D2940814207D147
:101260000020E063A06B80088000401CA06308E0C1
:10127000A06B022188431043A063E06B1843E06336
:1012800001263046F8BDA06B1043A063F8E70000CC
:101290001902FEFFE7FF3F8310B586B00446142114
:1012A0006846FFF79BF810492068884219D10F481B
:1012B000826941150A43826182690A400592426946
:1012C00009020A43426140690840059001200090EC
:1012D000032001900020029009206946C00600F01A
:1012E00089F806B010BD0000002401400010024043
:1012F00070B50446216800208968490732D4254624
:101300002035297D01292DD001212975617E0129F2
:1013100004D02046FFF730FE002818D1A16B124AF6
:101320001140FF2201321143A1630021E1632975BD
:1013300022681C21116063690422082B08D02368ED
:101340005D680D435D6021688B6813438B6070BDE1
:1013500021684B6893434B6021684B6818252B43E9
:101360004B60F0E7022070BDFEF1FFFF30B5014693
:1013700020314B780022022B04D0042383630A70AF
:10138000012030BD03681C680E25AC431C60036857
:101390001C68640864001C600123056C1C46C06B5B
:1013A000AC4044604B700A70002030BD70B5002422
:1013B000014620314A78022A03D0042181630124A6
:1013C00016E0026813680E25AB43136002681368C9
:1013D0005B085B0013600122056C1346AB40C56BD4
:1013E0006B604A7000220A70416B002900D0884768
:1013F000204670BDF8B5002303240125BAE02E462F
:101400009E40B44632407CD00E79B607B60F012E0E
:1014100001D0022E17D186682746B6465E00B74037
:1014200000967646BE43B646CF68009EB7407646E5
:101430003743876046686746BE430F79FF06FF0F54
:101440009F40374347600E79F643B6070ED0C66813
:101450002746B4465E00B646B7406646BE43B4462D
:101460008F687646B74066463743C7600E79B60741
:10147000B60F022E14D1DE08B60036180096366A72
:101480005F07B446FE0E0F27B646B7406646BE431A
:10149000B4460F697646B74066463743009E3762CA
:1014A00006682746B4465E00B646B7406646BE4369
:1014B0000F79B446BF07BF0F7646B740664637433D
:1014C00007604E68B603B60F53D02D4FBE692E434A
:1014D000BE61BE699F08F607F60F2A4EBF00BE190F
:1014E0000096B6680F27B4469E07360FB646B7403B
:1014F0006646BE430927FF06B446B84202D100271C
:1015000010E036E0204FB84201D101270AE01F4F1A
:10151000B84201D1022705E01D4FB84201D103278F
:1015200000E005277646B74066463743009EB76021
:10153000184E36684F689643FF0300D51643154F83
:101540003E607E684F689643BF0300D51643114F37
:101550007E60BE684F689643FF0200D516430D4F6C
:10156000BE60FE684F689643BF0200D51643094A25
:10157000D6605B1C0A681646DE4000D03FE7F8BD27
:10158000001002400000014000040048000800482C
:10159000000C004800040140002A01D0816170471E
:1015A0008162704701488068704700006000002039
:1015B00002488168027889188160704760000020C5
:1015C00010B506480168102211430160032000F0A5
:1015D00007F800F027F8002010BD000000200240AE
:1015E00070B504460D4D7D202978C000FEF7F8FE49
:1015F00001460B480068FEF7F3FE00F06BFB002885
:1016000009D1042C07D200222146401E00F02AF8FE
:1016100000206C6070BD012070BD000060000020E3
:101620006C00002008B508488169012211438161DE
:10163000816911400091C26901040A43C261C06915
:101640000840009008BD000000100240002805DBA3
:10165000C106C90E0120884001490860704700009A
:1016600000E100E010B502F017F810BDF8B505462E
:101670000068354CC00352D5E0690026C00007D48D
:10168000E16920040143E161E16901400126009123
:101690002E480168C90510D4016882151143016004
:1016A000FFF780FF074604E0FFF77CFFC01B6428BC
:1016B00024D826480068C005F6D5206A03273F02D3
:1016C000384020D06968394081421CD0206A226AA3
:1016D000B843012109040A432262226A8A43226232
:1016E0002062C0070FD0FFF75DFF009008E0FFF712
:1016F00059FF0099411A1648814201D90320F8BDCB
:10170000206A8007F3D5206A6968B84308432062DD
:10171000002E04D0E169012000078143E1612878AF
:10172000C00705D0206BA9688008800008432063AB
:101730002878800605D5206B10218843E968084386
:1017400020630020F8BD000000100240007000403F
:1017500088130000F8B50F46060059D03A4D2868A6
:10176000C007C00FB84209D228684008400038437B
:1017700028602868C007C00FB84249D13068334C90
:1017800081070CD5400704D560680721090208438A
:1017900060606068F0218843B16808436060307819
:1017A000C00726D0706801280ED0216802280ED00C
:1017B000890700292CDA6168890889000143616082
:1017C000FFF7F0FE00900DE021688903F1E7890141
:1017D000EFE7FFF7E7FE0099411A1D48814201D962
:1017E0000320F8BD60680C210840716889008842B8
:1017F000EFD12868C007C00FB8420BD9286840084D
:101800004000384328602868C007C00FB84201D0A4
:101810000120F8BD3078400706D56068072109022D
:101820008843F1680843606000F028F86168094A5D
:101830000906090F515CC840074908600320FFF7FB
:10184000CFFE0020F8BD0000002002400010024042
:1018500088130000943A00086C00002004480549F1
:1018600000684968044A4905490F515CC8407047FF
:101870006C00002000100240A43A000810B514A328
:101880000FCB88B06C460FC415A30FCB0FC4184AFA
:1018900051680C200B4603401648042B16D0082B29
:1018A00014D18B021B0F6C46E45CD26A04AB1207A6
:1018B000120F9A5CC90305D500231946FEF76EFC8A
:1018C000214601E020460C4901F0CEFE08B010BDD3
:1018D00002030405060708090A0B0C0D0E0F101071
:1018E0000102030405060708090A0B0C0D0E0F1070
:1018F0000010024000127A0000093D0070B586B069
:10190000022001900320039000200D46FF210131A9
:101910000D4C02900091049061691646012040042C
:101920000143616161690140059109206946C00672
:10193000FFF760FD60687F2109068843354328432F
:10194000606006B070BD000000100240FEB50400EB
:1019500070D02078DC4DC0074AD068680007800F3F
:10196000012807D068680007800F022809D168683D
:10197000C00306D5286880033AD560680028E7D000
:1019800036E06168012914D001208004002901D0CB
:10199000052914D02A68012109048A432A6029688C
:1019A000814329606068002816D0FFF7FBFD0646DA
:1019B0000EE028680121090408432860F2E729683D
:1019C00001432960F5E7FFF7EDFD801B64286ED821
:1019D00028688003F7D50BE0FFF7E4FD064604E036
:1019E000FFF7E0FD801B6428F1D828688003F7D456
:1019F00020780126800700283CDA68680007800FFD
:101A000007D068680007800F022809D16868C00302
:101A100006D42868800716D5E06801280AD112E0AC
:101A2000E0680028286816D030432860FFF7BAFD28
:101A3000074605E043E1FFF7B5FDC01B0228C6D805
:101A400028688007F7D52868F82188432169C900EC
:101A5000084328600EE0400840002860FFF7A2FD20
:101A6000074604E0FFF79EFDC01B0228AFD8286898
:101A70008007F7D42078000722D5E0690028686A3B
:101A80000ED030436862FFF78DFD074604E0FFF794
:101A900089FDC01B02289AD8686A8007F7D50FE035
:101AA000400840006862FFF77DFD074605E09DE0C5
:101AB000FFF778FDC01B022889D8686A8007F7D431
:101AC000207804274007002860DA00200190E869A8
:101AD000C00008D4E969B8060143E961E969014039
:101AE00001200091019079480168C90511D401686D
:101AF000821511430160FFF755FD009005E0FFF7E7
:101B000051FD0099401A642870D870480068C005DB
:101B1000F5D5A06801280AD0002801D0052810D0EA
:101B2000286A400840002862286AB84301E0286A11
:101B300030432862A068002812D0FFF733FD0090E0
:101B40000AE0286A38432862F1E7FFF72BFD009985
:101B5000411A5F48814249D8286A8007F5D50DE0CF
:101B6000FFF720FD009006E0FFF71CFD0099411AE9
:101B7000574881423AD8286A8007F5D4019800284E
:101B800004D0E969012000078143E9612078C0069B
:101B900035D5606901280CD0401D686B23D03843CF
:101BA0006863686B400840006863FFF7FBFC06460B
:101BB00022E0686B38436863686B30436863FFF703
:101BC000F1FC064604E0FFF7EDFC801B02285BD821
:101BD000686B8007F7D5686BF8218843A169C90055
:101BE000084368630BE0B8436863F4E74CE0FFF731
:101BF000D9FC801B022847D8686B8007F7D4206A7D
:101C000000285ED069680907890F022942D00126A1
:101C100036060228286805D0B0432860FFF7C2FCCA
:101C2000044633E0B0432860FFF7BCFC074604E0FD
:101C3000FFF7B8FCC01B022826D828688001F7D41B
:101C4000E86AE16A000900010843E862616AA06A83
:101C5000084369683D22120491430843686028687C
:101C600030432860FFF79EFC044604E0FFF79AFC2F
:101C7000001B022808D828688001F7D521E0FFF76B
:101C800091FC001B022801D90320FEBD28688001B9
:101C9000F5D416E00128F8D06868E96A0122120438
:101CA000636A02409A420AD10907E26A090F914227
:101CB00005D10F2189040840A16A884201D0012082
:101CC000FEBD0020FEBD000000100240007000407C
:101CD00088130000094910B5401E884201D901202F
:101CE00010BD074C60610321081F01F0D5FC0020E6
:101CF000A06107202061002010BD0000FFFFFF0051
:101D000000E000E070477047F0B502462032137FD4
:101D1000012B1BD0012616770223537705686B68C9
:101D2000AC687027BB430F681F436F600068084BA7
:101D3000984202D0074B984204D1802349689C43C3
:101D400021438160567700201077F0BD0220F0BD5E
:101D5000002C01400004004070B5040005D0254669
:101D60002035687F002802D006E0012070BD0020E9
:101D70002877204600F014F802206877211D20689B
:101D800001F00CF801204034A071A877E8772070AA
:101D90006070A070E070207160716877002070BD85
:101DA00010B586B0044614216846FEF717FB1549A6
:101DB0002068884224D11448C26981150A43C2614F
:101DC000C2690A400592426949020A434261406978
:101DD0000840059010200090022001900020029001
:101DE00003900420049009206946C006FFF702FB17
:101DF000002211461320FFF735FC1320FFF726FCC5
:101E000006B010BD0020004000100240F8B50546A5
:101E100004462035287F0026012817D00120287786
:101E200002206877226890687727FF23B8431B0257
:101E3000984390600868502838D00EDC20284FD096
:101E400006DC00284CD010281ED149E00220F8BD45
:101E5000302845D0402817D13AE060282ED070288D
:101E600019D001221203801A0FD090420CD1CB68F6
:101E70004A688968206800F0DAFF206881680122DA
:101E800092031143816000E0012601206877002061
:101E900028773046F8BDCB684A688968206800F02A
:101EA000C6FF2168886838438860EEE7CA684968D9
:101EB000206801F0B1F85021206806E0CA6849683E
:101EC000206801F0DDF86021206800F0BBFFDCE74E
:101ED000CA684968206801F09FF840212068F4E74B
:101EE000226801461046F0E770B50546007F0128DC
:101EF00024D1174C6069401C6061207800281ED0F6
:101F000001281BD10021284600F009FBE060296868
:101F100000264E62A16888420FD9401A0D4D2061FB
:101F2000FEF748FF01462846FEF742FE0A4901F047
:101F3000F1FC711EFEF742FF6064267070BD002147
:101F4000284600F0ECFAA0600120207070BD00006F
:101F50000000002000007A4500007042F8B50446F9
:101F60000020264620360090307F0D4601280ED0F6
:101F700001203077002A0CD0042A19D0082A2AD050
:101F80000C2A4ED00090002030770098F8BD022037
:101F9000F8BDEB6806CD083D206801F04FF82068D9
:101FA00082690C218A43826120688169AA680FE0F6
:101FB000EB6806CD083D206801F075F8206881695E
:101FC000032292029143816120688169AA6812020A
:101FD00011438161D7E788CD287921688446086A52
:101FE000FF22013290430862C8690A6A80088000B3
:101FF0003843F027B84367463F073F0E07430520A5
:10200000400282430A20034018021043CF61086255
:102010002068C1690C229143C1612068C1692A68A6
:102020002CE02B6820689E466F682B7B016ABC46BB
:102030000122120391430162C169026A03273F0230
:10204000B94367463F020F430F2109038F43190726
:10205000090C052339435B039A4373460A273B4027
:102060001B031343C16103622068C2690321890213
:102070008A43C2612068C169AA6812021143C16122
:1020800081E770B5040005D025462035687F00281B
:1020900002D006E0012070BD00202877204600F025
:1020A00014F802206877211D206800F077FE0120D7
:1020B0004034A071A877E87720706070A070E0705D
:1020C000207160716877002070BD704770B503465D
:1020D0000446002520334030002908D0042909D0C7
:1020E00008290AD046784279012E0BD108E09E7F5C
:1020F0008278F9E7DE7FC278F6E706780279F3E7BF
:10210000012A01D0012070BD0222002909D0042932
:102110000ED0082912D0427042710C292BD0012513
:1021200027E09A7782702068C3681343C3600CE08D
:10213000DA77C2702068C268042304E0027002717A
:102140002068C26808231A43C2600122206800F098
:1021500061FE0B4A20680121904202D0094A904258
:1021600004D182685207520F062A02D002680A433D
:102170000260284670BD2068C2681023E3E70000B3
:10218000002C01400004004070B50446006801695D
:102190000025C9438907002915DBC168C9438907A0
:1021A00011D4E91E01610120207720688069800731
:1021B000204602D0FFF798FE04E000F0BFF820466A
:1021C00000F05CF9257720680169C943490717D4F5
:1021D000C168C943490713D40421C94301610220DE
:1021E0002077206880698005800F204602D0FFF7A5
:1021F0007BFE04E000F0A2F8204600F03FF92577CE
:1022000020680169C943090716D4C168C943090791
:1022100012D40821C9430161042020772068C069D5
:102220008007204602D0FFF75FFE04E000F086F84A
:10223000204600F023F9257720680169C943C906C3
:1022400017D4C168C943C90613D41021C943016119
:10225000082020772068C0698005800F204602D0C2
:10226000FFF742FE04E000F069F8204600F006F9AE
:10227000257720680169C943C90708D1C168C943E6
:10228000C90704D1891E0161204600F047F9206882
:102290000169C943090609D4C168C943090605D4BF
:1022A0008021C94301612046FFF72CFD20680169A8
:1022B000C943490609D4C168C943490605D4402128
:1022C000C9430161204600F040F920680169C94313
:1022D000890609D4C168C943890605D42021C943A8
:1022E00001612046FFF70FFD70BD000010B586B0FC
:1022F000044614216846FEF771F80E4920688842AA
:1023000015D10D48426949130A43426140690840AA
:102310000590402000900220019000200290039040
:102320000120049009206946C006FFF763F806B053
:1023300010BD000000040040001002407047F8B5D6
:10234000064604462036307F00270D4601280ED071
:1023500001203077002A0CD0042A1BD0082A2FD065
:102360000C2A3ED00127002030773846F8BD0220E5
:10237000F8BD206800F06EFD2068816908221143D5
:1023800081612068826904218A43826120688169B1
:102390002A6912E0206800F099FD20688269012115
:1023A000C9020A4382612068816901229202914335
:1023B0008161206881692A69120211438161D2E733
:1023C000206800F0BDFD2068C16908221143C16189
:1023D0002068C26904218A43C2612068C1692A69F0
:1023E00012E0206800F0E8FD2068C1690122D202F5
:1023F0001143C1612068C269012189028A43C26117
:102400002068C1692A6912021143C161ABE770B546
:10241000040005D025462035687F002802D006E05C
:10242000012070BD00202877204600F015F802201A
:102430006877211D206800F0B1FC01204034A071B4
:10244000A877E87720706070A070E07020716071EC
:102450006877002070BD000008B500680549884213
:1024600007D10548C26902210A43C261C069084018
:10247000009008BD000400400010024070470000BA
:1024800010B504460222203000290AD004290DD0BC
:102490002046403008290ED04378012B10D001206F
:1024A00010BD837F012BFAD182770AE0C37F012B15
:1024B000F5D1C27705E00378012BF0D1027000E07E
:1024C00042700122206800F0A5FC10492068884273
:1024D00005D00F4A904202D00E4A904204D1426C7D
:1024E0000123DB031A43426420680122884202D0A0
:1024F0000949884204D181684907490F062902D059
:10250000016811430160002010BD0000002C014053
:10251000004401400048014000040040704702466A
:102520000020002908D0042909D008290AD00C2944
:1025300001D11068006C70471068406B70471068DC
:10254000806B70471068C06B70477047704770476A
:10255000F8B502680446D069116896689C4B054638
:102560001D402023002D75D0F7079A4DFF0FBC4664
:102570000D402F436DD02546C7078035002F06D06C
:10258000CF0504D5012717622A683A432A608207DB
:1025900008D5F20706D0276802223A622A68042783
:1025A0003A432A60420708D5F20706D0266804227B
:1025B00032622A68022632432A6002070AD50A4696
:1025C0001A406646324305D02668082232622E68D9
:1025D00016432E60020508D54A0106D50122266859
:1025E000D20232622A681A432A602A68002A39D045
:1025F000800606D5880604D5616E002901D02046E4
:102600008847286821688968490602D42821084239
:102610002DD0204600F002FE21688868400622D5B1
:10262000EFF31080012282F310888B6840229343DD
:102630008B6080F31088206F002814D066494163B6
:10264000206FFEF7B3FE00280CD0206F416B08E02E
:1026500000E012E0850610D58D060ED5616E9DE076
:1026600020468847F8BD2046FFF771FFF8BD204699
:10267000FFF76DFF00202860F8BD256E012D7DD18C
:10268000C5067BD5CD0679D51026166222689068DE
:10269000254640064035002845DA216F0868406825
:1026A0000004000CE8D02F8B8742E5D96883886945
:1026B000202833D0EFF31080012181F310881168B6
:1026C0003701B943116080F31088EFF310800121C6
:1026D00081F3108821688A68520852008A6080F36A
:1026E0001088EFF31080012181F3108821688A6837
:1026F0004027BA438A6080F31088E3670020206691
:10270000EFF31080012181F3108821680A68B24339
:102710000A6080F31088206FFEF728FE288B698BF3
:10272000401A81B231E0288B698B401A81B2688BE4
:102730000028A1D000299FD0EFF31080012585F358
:1027400010881568FF272137BD43156080F3108876
:10275000EFF31080012282F31088226895686D08DB
:102760006D00956080F31088E36700202066606646
:10277000EFF31080012282F3108800E009E0226864
:102780001368B343136080F310882046FFF7DEFE22
:10279000F8BD050606D50D0604D5A16E002900D0AA
:1027A0005EE7F8BD4006FCD54806FAD52046EFF3B3
:1027B0001081012484F3108814684025AC43146010
:1027C00081F3108883670021816600F032F9F8BD3B
:1027D0000F080000200100040932000810B50400B1
:1027E00003D0A06F002802D007E0012010BD002117
:1027F00074200155204600F027F82420A0672068A7
:102800000168490849000160204600F0DFFD012809
:10281000ECD0606A002802D0204600F05EFC206800
:1028200041680122D20291434160206881680822F8
:1028300091438160206801680122114301602046B4
:1028400000F0B0FC10BD000010B586B004461421A5
:102850006846FDF7C3FD16492068884226D1154811
:102860008269012189030A43826182690A400592D3
:102870004269C9000A4342614069084005900C2042
:10288000009002200190002002900320039001207C
:10289000049009206946C006FEF7ACFD00221146EF
:1028A0001B20FEF7DFFE1B20FEF7D0FE06B010BD9A
:1028B000003801400010024070B5C36F202B2BD1AF
:1028C00000290BD0002A09D0012483682403A342E5
:1028D00006D10369002B03D1CB0701D0012070BDC5
:1028E000034660331C7D012C16D001241C75002387
:1028F0000366046863681B020BD5EFF310830125A0
:1029000085F3108825680126B6063543256083F3D4
:10291000108800F0E9FD70BD022070BD10B50068A0
:102920000C49884214D10C498A782E2A05D00B4BC9
:10293000C8781A54401CC87003E00020C8700120F9
:102940004870054905480122891C8438FFF7B4FF07
:1029500010BD00000038014000000020C40100202C
:10296000FFB50446806F83B017460D4620285ED120
:10297000002D0AD0002F08D0A168C001814207D1E4
:102980002069002804D1E80702D0012007B0F0BD7B
:10299000204660300090007D012848D00098012139
:1029A00001750020802108512120A067FEF7FAFD63
:1029B000264640360190378277820120A1680003C5
:1029C000814202D12069002805D02F4600250099B8
:1029D0000020087511E00027F9E700228021204639
:1029E00000F0D0FD002815D1002F15D021683878CF
:1029F00008857F1C708A401E7082708A019B0028A7
:102A000006980090E9D100224021204600F0BAFD4E
:102A1000002808D00320B9E728882168C005C00D28
:102A20000885AD1CE6E72020A0670020AEE7022065
:102A3000ACE77047FEE700003EB500241649174892
:102A400000940194029412C0046004224460C260A5
:102A500001218160047444748474C474FF22C232FE
:102A60008461426102461832147101620838FEF72F
:102A700057FB002801D072B6FEE701200003019049
:102A800000040290009469460448FEF7BDFA00284D
:102A900001D072B6FEE73EBD002401407000002068
:102AA000F0B587B014216846FDF798FC1C484269D0
:102AB000012189050A43426142690A40059242693F
:102AC00049110A43426142690A400592426949003C
:102AD0000A434261406909260840F6060590002233
:102AE00082213046FEF758FD0E4F00220221384663
:102AF000FEF752FD822000240125009002946946D1
:102B0000019503943046FEF775FC02200090029474
:102B10006946019503943846FEF76CFC07B0F0BD9A
:102B200000100240000400481FB50024154800941E
:102B30000194029412490394016013498460416036
:102B4000046112498461C160FFF706F9002801D0D1
:102B500072B6FEE70B48FFF794FA002801D072B670
:102B6000FEE701200190009402940022694603943C
:102B70000448FFF7F3F9002801D072B6FEE71FBD45
:102B800000200040F80000207FBB0000FFFF000095
:102B900010B58EB000240794089409940A940B94FD
:102BA0001C2168460C94FDF719FC20481E49016061
:102BB0002F2184604160046163218461C160FFF75B
:102BC000CBF8002801D072B6FEE701200003079081
:102BD00007A91648FFF71AF9002801D072B6FEE7D8
:102BE0001248FFF714FC002801D072B6FEE70B94E0
:102BF0000BA90E480C94FFF787F8002801D072B695
:102C0000FEE760200090019402940022694604943B
:102C10000648FFF794FB002801D072B6FEE7034890
:102C2000FFF764FB0EB010BD00040040B0000020B0
:102C300010B50C480A4901604B214902416000214E
:102C40008160C16001618161C1610C2201624261E8
:102C50004162FFF7C3FD002801D072B6FEE710BD48
:102C60000038014040010020FEE70000F7B50846AB
:102C7000114600F0A7FE1E4C05462065A16B0E46CE
:102C800000F048FE616D00F0FFFD606507462846D4
:102C9000E16A00F097FEA16A00F03CFE3146FDF7C4
:102CA00087FF06463946606A00F034FE074629462B
:102CB000206A00F02FFE394600F0E6FD314600F0B4
:102CC000E3FD064620630098FEF76CF8314600F0FD
:102CD000DBFD0849884201DB632007E0FF21C905CD
:102CE000C84201D3002001E0FEF712F8E562FEBD04
:102CF000000000200000C6427047704710B5FEF784
:102D000057FC10BD70B594B030216846FDF766FBE6
:102D1000002401250F9412200595009010200E9498
:102D200010941394049006900D9405201294C004FE
:102D30000C94039502260A901194089609940B941A
:102D40006846FEF703FE002801D072B6FEE70720B2
:102D50000C900E9401210D960F940CA8FEF7FAFC2E
:102D6000002801D072B6FEE710A810951294FEF765
:102D70007DFC002801D072B6FEE700220121890601
:102D80001046FEF7BBFD14B070BD704710B5024889
:102D9000FFF7FAF910BD0000F800002070B50268D6
:102DA000174B184E984201D0B04203D17024A24371
:102DB0004C682243144C154D984208D0B04206D0BE
:102DC000134EB04203D0A04201D0A84204D1032642
:102DD0003602B243CE6832438026B2434E69324354
:102DE00002608A68C2620A688262984203D0A04286
:102DF00001D0A84201D1096901630121416170BD7F
:102E0000002C014000040040004401400048014003
:102E10000020004010B5CB06DB0E0121046A99406A
:102E20008C430462016A9A401143016210BD30B5BF
:102E30008468FF252D021B021343AC430B4323433D
:102E4000836030BD826870239A430A4307210A4396
:102E500082607047F0B5026A520852000262056A49
:102E6000436882697024A24392080C68920014435C
:102E7000022295438A68134E2A43114DA84204D07A
:102E8000B04202D0104FB84206D10827BA43CF68EB
:102E90001743042297433A46A84204D0B04202D0D6
:102EA000094DA84206D103252D02AB434D691D43B0
:102EB0008B692B4343608461496841630262F0BDC2
:102EC000002C0140004401400048014070B5026AF6
:102ED00010239A430262046A4368826973252D02B3
:102EE000AA430D682D021543202294438A681201DB
:102EF0002243104CA04208D11446CA688026B4432D
:102F0000120122434024A24305E00B4CA04202D010
:102F10000A4CA04208D10324A402A3434C69A40094
:102F20001C438B699B00234343608561496881632F
:102F3000026270BD002C0140004401400048014085
:102F400070B5026AFF2301339A430262046A436840
:102F5000C2697025AA4392080D68920015430122A8
:102F6000520294438A6812022243104CA04207D1B5
:102F7000C414A243CC68240222430615B24305E0E0
:102F80000B4CA04202D00B4CA04208D103242403D6
:102F9000A3434C6924011C438B691B0123434360F9
:102FA000C5614968C163026270BD0000002C014028
:102FB000004401400048014030B5026A01231B0370
:102FC0009A430262056A4268C36973242402A343D8
:102FD0000C6824021C4301235B039D438B681B0385
:102FE0002B430A4DA84205D0094DA84202D0094DF5
:102FF000A84205D10125AD03AA434D69AD012A437D
:103000004260C46149680164036230BD002C014024
:10301000004401400048014030B5036A046A640876
:10302000640004628469F025AC43120122430A243F
:10303000A3430B438261036230BD000070B5046A94
:103040006408640004628469056A0B4EB04202D0D1
:103050000A4EB04202D1A408A40000E001221443A9
:10306000F02294431A07120E0A2322439D4319406B
:1030700029438261016270BD002C014000040040C0
:1030800030B5036A1024A34303628469036A0F25E1
:103090002D031203AC432243A024A3430901194387
:1030A0008261016230BD70B5046A1025AC430462D0
:1030B0008569046A03263602B54312022A430F25A6
:1030C0002D031B071B0CAA431343A02209019443A1
:1030D000114021438361016270BD10B5818CC90725
:1030E00007D001684A6801235B049A43836A1A4344
:1030F0004A60818C890707D501684A6801231B044F
:103100009A43C36A1A434A60818C490707D501680C
:103110004A6801239B049A43036B1A434A60818CDB
:10312000090707D501684A680123DB039A43436B0B
:103130001A434A60818CC90607D502689168012349
:103140001B039943836B19439160818C890607D5D2
:1031500001688A6801235B039A43C36B1A438A6040
:10316000818C490612D503685A6801210905046C4F
:103170008A4322435A60026C8A4207D1026851682E
:1031800003235B059943436C19435160818C090605
:1031900007D501684A680123DB04806C9A43024327
:1031A0004A6010BDF8B50446002680300660FEF780
:1031B000F9F9054620680068124F000709D501217A
:1031C0002B46002249052046009700F0DBF9002835
:1031D0000DD12068006840070BD501212B46002245
:1031E00089052046009700F0CDF9002801D0032082
:1031F000F8BD2020A067E0672666603426750020B1
:10320000F8BD0000FFFFFF0110B5406A0022014633
:1032100040314A834A82FFF79AF910BD10B5EFF3A7
:103220001081012282F3108802681368FF24213480
:10323000A343136081F31088EFF31081012282F31E
:103240001088026893685B085B00936081F31088C4
:10325000016E01290BD1EFF31081012282F3108856
:10326000026813681024A343136081F3108820219F
:10327000C16700210166416610BD70B5014640314D
:103280008B8BC46F0268222C04D0906908210843FC
:10329000906170BD928C446D1A402280426D921CE8
:1032A00042654A8B521E4A834A8B002AF1D1EFF3C2
:1032B0001082012383F3108803681C68FF252135E1
:1032C000AC431C6082F31088EFF31082012383F378
:1032D000108803689C68640864009C6082F310880E
:1032E0002022C26700224266036E012B02D0FFF744
:1032F00015FB70BD0266EFF31082012383F3108883
:103300000468256810239D43256082F310880268B5
:10331000D469E443E40600D41362098BFFF716F97D
:1033200070BD70B5014640318B8BC46F0268222C92
:1033300004D0906908210843906170BD928C1A40B6
:10334000436D1A70426D521C42654A8B521E4A836D
:103350004A8B002AF1D1EFF31082012383F3108806
:1033600003681C68FF252135AC431C6082F310887C
:10337000EFF31082012383F3108803689C686408CC
:1033800064009C6082F310882022C267002242669B
:10339000036E012B02D0FFF7C1FA70BD0266EFF396
:1033A0001082012383F310880468256810239D434D
:1033B000256082F310880268D469E443E40600D4EF
:1033C0001362098BFFF7C2F870BD000070B50446A8
:1033D00080682169E2690843616900251143084357
:1033E00021680A683C4B1A4002430A602168486819
:1033F000032212039043E26810434860A169206AE7
:10340000084321688A680B231B029A4302438A609F
:103410003248006B8007800F16D0012818D0022890
:1034200018D0032812D010210120E369C0032C4AD0
:103430002C4E83422BD100290ED002290FD0042913
:103440000FD008293FD110E00021EDE70221EBE782
:103450000421E9E70821E7E7FEF700FA03E0104658
:1034600003E0FEF70BFA002831D0616840004A08FB
:103470008018FCF7B5FF80B201461039B14222D85E
:103480001849491C01400007400F08431DE000296E
:1034900006D0022907D0042907D0082913D108E053
:1034A000FEF7DCF903E0104603E0FEF7E7F9002839
:1034B0000DD061684A081018FCF792FF80B20146EF
:1034C0001039B14201D9012501E02168C86000200E
:1034D0006066A066284670BDF369FFFF00100240D9
:1034E00000127A00EFFF000070B5416501464031DF
:1034F0000A834A8300224266012385681B03FF2456
:103500009D4204D10569002D31D11B4C2FE0002DC7
:1035100029D08A8380210A502221C167EFF31081CC
:10352000012484F310880468A56801263543A5604A
:1035300081F310888168994202D10169002918D06D
:103540000E49416674210A54EFF31081012282F37F
:10355000108800680268FF2321331A43026081F358
:103560001088002070BD0569002D00D07F248C8359
:10357000D0E70349E5E70000FF010000233300081E
:103580007B320008FFB581B005461746044660351A
:103590000A9E55E0701C53D0FEF704F80499401AB7
:1035A000B04230D8002E2ED020680168490747D598
:1035B000C069C043000543D401202168C0020862ED
:1035C000EFF31080012181F3108821680B68FF223E
:1035D000A13293430B6080F31088EFF31080012138
:1035E00081F3108821688A68520852008A6080F34B
:1035F00010882020A067E0678034206000202875B4
:10360000032005B0F0BDEFF31080012181F3108895
:1036100021680B68FF22A13293430B6080F310886E
:10362000EFF31080012181F3108821688A68520825
:1036300052008A6080F310882020A067E067DDE7F1
:103640002068C1690298884304D00020B842A1D004
:103650000020D6E70120F9E710B50248FEF778FF11
:1036600010BD000040010020F8B5040C8BB22646C6
:1036700082B25E430D0C1046370C58433604801955
:103680000021794116466E43370C36048019794182
:1036900026466E438919F8BD8307FF22DB0E9A4048
:1036A0008907090E9940002808DB830809489B0018
:1036B0001B18186890430843186070470007000FF4
:1036C0000838830804489B001B18D86990430843B6
:1036D000D861704700E400E000ED00E01CB5FDF7A4
:1036E0006FFFFFF70FFBFFF7DBF9FFF751FAFFF76B
:1036F0001BFAFFF79DFAFFF79FF90924E406002261
:1037000080212046FDF748FF012202215048FDF7A5
:1037100043FF012202212046FDF73EFF00214D48D4
:10372000FEF7AEFE4B4800214830FEF7CFFC4A4979
:10373000642308461E229838FFF712F945480122F3
:1037400046499030FFF7B8F8FDF72CFFFDF732FB44
:10375000424C434EA41E0025E0646078002818D037
:103760003D48143801783039092911D87D23DB0010
:10377000C2785943521841786423594380780A2308
:1037800058430818374910184018FDF70BFBA06480
:103790006570FDF707FFFDF70DFBE16C00F012F916
:1037A000B042DADBFDF7FEFEFDF704FBE064606C7F
:1037B0000746FDF7ADFAE0613A46A16C606BFFF792
:1037C00055FA80B22349A0800968486321484038EF
:1037D000FDF78EFD1F484038FDF79EFC80B2E0806B
:1037E000FDF7E8FA2049FDF7E3F9FDF7B7F91F4ABD
:1037F0001F4BFDF78FF8FCF7A3FEA065FDF7AEF9B0
:1038000000221C4BFDF763F800221B4BFDF782F8EA
:10381000FCF796FE3146E06500F07CF8FDF778FA9B
:103820002564E0630020A061A06CFDF797F9E269D0
:10383000009202460B46019510A10748FCF730FDA7
:103840000549642308461E229838FFF789F884E763
:1038500000040048B0000020D80100200200002031
:103860000000C84230EBFFFF00F07F4566666666E9
:1038700066660A40000004400000244025642C25B0
:10388000642C25640000000070B501250400ED07DC
:103890004C4020D4441A01D2001B0919C60D4B001C
:1038A000F2B2FF2A29D01B0E2CD000020C02D31A30
:1038B0002C43DC402843051910D2280A02D3401CAF
:1038C0006D0611D0761EF6058019FF2A00DA70BD4C
:1038D000C00DC00570BD694000F07AF801200543B5
:1038E000C541521C761CE8E764089C40C901614050
:1038F0008900E7D10124A043E4E71B0E440200D075
:10390000034870BD002AFCD1C00FC00770BD00BFC6
:103910000000C07F70B5420064414B005C41120E54
:1039200039D01B0E38D0FF2A3CD0FF2B3AD04002B2
:103930004902400A490A060045184E43000A090A8E
:10394000D2184843ED017F3A0104731A4019190C4B
:103950004318990F04D001215B0849075B1A521CD8
:10396000D80904D3401CF50301D19D0607D0FF2AD6
:1039700008D2D50506D0E4072043401970BD0125C3
:10398000A843F4E7002A01DCE00770BD2402FF2011
:103990002043C00570BD1B0EFF2A03D0FF2B01D0B2
:1039A000E00770BDFF2645003606B54206D84D003B
:1039B000B54203D8D218FF2A00D0E7E7004870BD0F
:1039C0000000C07F70B501250400ED074C4022D4F3
:1039D000441A02D26C40001B0919C60D4B00F2B20A
:1039E000FF2A4BD01B0E50D000020C02D31A2C43DE
:1039F000DC40A843051B05D5AD0019D36D08761E24
:103A0000521E37D0F605280A01D2801970BD7041C8
:103A10006D0603D070BD6940FFF73CFF9C40090272
:103A20006140490001D0401E70BD0124A04370BD1B
:103A30006D081DD001202B0C01D12D0410302B0E50
:103A400001D12D0208302B0F01D12D01001DAB0F2C
:103A500001D1AD00801CEB0F01D16D00401C6D0049
:103A6000361A121A680AF5054019012A02DB70BDE0
:103A7000002070BDC036300AC00770BD1B0E440266
:103A800001D1FF2B00D1024870BD002AF0D070BDDB
:103A90000000C07F000000000000000001020304DD
:103AA00006070809000000000102030481828384E4
:103AB00085868788898B8C8D8E8F9192939596972A
:103AC000999A9C9D9FA0A2A3A5A7A8AAACAEB0B2AC
:103AD000B3B5B7B9BCBEC0C2C5C7C9CCCED1D4D7A7
:103AE000D9DCDFE2E6E9ECF0F3F7FAFE0C3B000884
:103AF0000000002070000000F40000087C3B00087B
:103B000070000020E807000010010008000000001D
:103B100000000000000000000000000000000000A5
:103B20000000000000000000000000009A99993E8B
:103B30000000F04100000000000000000000000054
:103B400000000000CDCCCC3D0000000000000000D3
:103B50000000000000000000000000000000000065
:103B60000000000000000000000000000100000054
:0C3B7000040000000000000000127A00B9
:04000005080000B13E
:00000001FF
